:020000040800F2
:10000000000001200D0F0008070300080903000885
:100010000B0300080D0300080F0300080000000098
:1000200000000000000000000000000011030008B4
:100030001303000800000000150300081703000860
:100040005D0F00085D0F00085D0F00085D0F0008E0
:100050005D0F00085D0F00085D0F00085D0F0008D0
:100060005D0F00085D0F00085D0F00085D0F0008C0
:100070005D0F00085D0F00085D0F00085D0F0008B0
:100080005D0F00085D0F00085D0F00085D0F0008A0
:100090005D0F00085D0F00085D0F00085D0F000890
:1000A0005D0F00085D0F00085D0F00085D0F000880
:1000B0005D0F00085D0F00085D0F00085D0F000870
:1000C0005D0F00085D0F00085D0F00085D0F000860
:1000D0005D0F00085D0F00085D0F00085D0F000850
:1000E0005D0F00085D0F00085D0F00085D0F000840
:1000F0005D0F00085D0F00085D0F00085D0F000830
:100100005D0F000800000000000000005D0F000807
:100110005D0F00085D0F00085D0F00085D0F00080F
:100120005D0F00085D0F00085D0F00085D0F0008FF
:100130005D0F00085D0F00080000000000000000D7
:100140005D0F00085D0F00085D0F00080000000053
:10015000000000000000000000000000000000009F
:100160005D0F00085D0F00085D0F00085D0F0008BF
:100170005D0F00085D0F00085D0F00085D0F0008AF
:100180005D0F00085D0F0008000000000000000087
:040190005D0F0008F7
:1001940010B5054C237833B9044B13B10448AFF3BD
:1001A40000800123237010BD0C000020000000001B
:1001B400B80F000808B5034B1BB103490348AFF35C
:1001C400008008BD0000000010000020B80F0008E7
:1001D40010B58AB0002405940694079408940994F1
:1001E400274B5A6942F400225A615A6902F40022E8
:1001F4000192019A5A6942F480025A615A6902F4DE
:1002040080020292029A5A6942F400325A615A698F
:1002140002F400320392039A5A6942F480225A612A
:100224005B6903F480230493049B224620214FF04E
:10023400904000F0FBFD4FF4005305934FF404137A
:100244000693079405A90F4800F000FD0C230593BD
:1002540002230693079408940723099305A94FF0F2
:10026400904000F0F3FC20230593012306930794A8
:10027400089405A94FF0904000F0E8FC0AB010BDC6
:10028400001002400008004872B6FEE700B591B0C5
:100294002822002106A800F085FE00230193029382
:1002A40003930493059302230693012209921022D7
:1002B4000A920C934FF400430D934FF4E0130E9302
:1002C40006A800F093F880B90F230193022102914C
:1002D400002303934FF480620492059301A800F075
:1002E400E1FB20B911B05DF804FBFFF7CDFFFFF788
:1002F400CBFF08B500F056F8FFF7C8FFFFF768FF1B
:10030400FEE7FEE7FEE7FEE7FEE7FEE7704770471D
:10031400704708B500F058F808BD000000B583B078
:100324000C4B9A6942F001029A619A6902F0010247
:100334000092009ADA6942F08052DA61DB6903F0D4
:1003440080530193019B072000F076FD03B05DF814
:1003540004FB00BF0010024010B504460E4B187891
:100364004FF47A73B3FBF0F30C4A1068B0FBF3F06C
:1003740000F0ACFD68B90F2C01D901200AE000227D
:1003840021464FF0FF3000F069FD054B1C60002052
:1003940000E0012010BD00BF000000200800002084
:1003A4000400002008B5074A136843F010031360E3
:1003B400032000F041FD0020FFF7CEFFFFF7AEFF62
:1003C400002008BD00200240034A1168034B1B783B
:1003D4000B441360704700BF280000200000002079
:1003E400014B1868704700BF28000020002800F067
:1003F4000A8370B582B00446036813F0010F3DD040
:10040400B34B5B6803F00C03042B20D0B04B5B6848
:1004140003F00C03082B13D06368B3F5803F6AD054
:10042400002B40F08D8003F1804303F504331A68F8
:1004340022F480321A601A6822F480221A605FE083
:10044400A34B5B6803F4C033B3F5803FE4D14FF4AE
:10045400003393FAA3F39E4B19684FF4003393FAD5
:10046400A3F3B3FA83F303F01F03012202FA03F3A5
:100474000B4203D06368002B00F0C782236813F09B
:10048400020F00F0C080924B5B6813F00C0F00F079
:1004940097808F4B5B6803F00C03082B00F0888077
:1004A400E368002B00F0ED80012292FAA2F3B3FA84
:1004B40083F303F1845303F584139B001A60FFF75D
:1004C4008FFF0546022393FAA3F3814B1968022395
:1004D40093FAA3F3B3FA83F303F01F03012202FA9E
:1004E40003F30B4240F0BE80FFF77AFF401B022863
:1004F400E8D9032092E2764A136843F48033136008
:100504006368002B36D0FFF76BFF05464FF40033CA
:1005140093FAA3F36E4B19684FF4003393FAA3F3E1
:10052400B3FA83F303F01F03012202FA03F30B422D
:10053400A4D1FFF755FF401B6428E7D903206DE2DF
:10054400B3F5A02F09D0624B1A6822F480321A60E6
:100554001A6822F480221A60D2E703F18043A3F5DB
:100564003C331A6842F480221A601A6842F48032DA
:100574001A60C5E7FFF734FF05464FF4003393FADA
:10058400A3F3534B19684FF4003393FAA3F3B3FA6C
:1005940083F303F01F03012202FA03F30B423FF437
:1005A4006DAFFFF71DFF401B6428E6D9032035E239
:1005B400474B5B6803F4C033B3F5004F7FF470AF6F
:1005C400022393FAA3F3424B1968022393FAA3F389
:1005D400B3FA83F303F01F03012202FA03F30B427D
:1005E40003D0E368934240F012823948036823F051
:1005F400F8032169F82292FAA2F2B2FA82F201FA1D
:1006040002F213430360236813F0080F00F08C8098
:100614006369002B60D0012191FAA1F2B2FA82F24F
:100624002C4B13449B001960FFF7DAFE05460223A6
:1006340093FAA3F293FAA3F293FAA3F2244A516A27
:1006440093FAA3F3B3FA83F303F01F03012202FA2C
:1006540003F30B4268D1FFF7C3FE401B0228E6D91F
:100664000320DBE11A48036823F0F8032169F82228
:1006740092FAA2F2B2FA82F201FA02F2134303608E
:10068400C1E7012393FAA3F3B3FA83F303F1845389
:1006940003F584139B0000221A60FFF7A1FE0546B0
:1006A400022393FAA3F30A4B1968022393FAA3F3E0
:1006B400B3FA83F303F01F03012202FA03F30B429C
:1006C400A1D0FFF78DFE401B0228E9D90320A5E144
:1006D4000010024020819010012292FAA2F2B2FA94
:1006E40082F29C4B13449B0000221A60FFF778FEB1
:1006F4000546022393FAA3F293FAA3F293FAA3F220
:10070400954A516A93FAA3F3B3FA83F303F01F03F0
:10071400012202FA03F30B4206D0FFF761FE401BED
:100724000228E6D9032079E1236813F0040F00F0CE
:10073400A980894BDB6913F0805F20D1864BDA698D
:1007440042F08052DA61DB6903F080530193019B2C
:100754000125824B1B6813F4807F12D0A368012B00
:1007640023D073BB03F1804303F504331A6A22F0E8
:1007740001021A621A6A22F004021A621AE00025BF
:10078400E7E7764A136843F480731360FFF728FEA3
:100794000646724B1B6813F4807FDFD1FFF720FEFF
:1007A400801B6428F5D9032038E16B4A136A43F0AF
:1007B40001031362A368002B3CD0FFF711FE064629
:1007C4002BE0052B09D0644B1A6A22F001021A624D
:1007D4001A6A22F004021A62ECE75F4B1A6A42F0CA
:1007E40004021A621A6A42F001021A62E2E75A4BE0
:1007F400196A022393FAA3F3B3FA83F303F01F03F2
:10080400012202FA03F319423BD1FFF7E9FD801BF1
:1008140041F28833984200F2FC80022393FAA3F257
:1008240093FAA3F3002BE2D1022393FAA3F34A4BE6
:10083400596ADEE7FFF7D4FD064615E0464B196A10
:10084400022393FAA3F3B3FA83F303F01F03012201
:1008540002FA03F3194214D0FFF7C2FD801B41F2E0
:100864008833984200F2D780022393FAA3F293FAD2
:10087400A3F3002BE2D1022393FAA3F3364B596A74
:10088400DEE7B5BBA369002B00F0C780324A52688B
:1008940002F00C02082A00F0A080022B2FD04FF0A7
:1008A400807393FAA3F3B3FA83F303F1845303F548
:1008B40084139B0000221A60FFF792FD04464FF058
:1008C400007393FAA3F3244B19684FF0007393FA5F
:1008D400A3F3B3FA83F303F01F03012202FA03F331
:1008E400194278D0FFF77CFD001B0228E7D90320CA
:1008F40094E0194AD36923F08053D361C2E74FF0DF
:10090400807393FAA3F3B3FA83F303F1845303F5E7
:1009140084139B0000221A60FFF762FD05464FF026
:10092400007393FAA3F30C4B19684FF0007393FA16
:10093400A3F3B3FA83F303F01F03012202FA03F3D0
:1009440019420DD0FFF74CFD401B0228E7D90320C4
:1009540064E000BF2081901000100240007000404D
:10096400334AD36A23F00F03616A0B43D36253689B
:1009740023F47613216AE06901430B4353604FF07B
:10098400807393FAA3F3B3FA83F303F1845303F567
:1009940084139B0001221A60FFF722FD04464FF0E6
:1009A400007393FAA3F3224B19684FF0007393FA80
:1009B400A3F3B3FA83F303F01F03012202FA03F350
:1009C400194206D1FFF70CFD001B0228E7D90320CA
:1009D40024E0002022E0002020E0012B20D0144A53
:1009E4005368D06A03F4C031E26991421AD103F426
:1009F4007013226A934217D100F00F00636A984281
:100A040014D100200AE001207047012006E00120F3
:100A140004E0032002E0032000E0002002B070BDE7
:100A24000120FBE70120F9E70120F7E70120F5E7C2
:100A340000100240174B5B6803F00C02082A01D037
:100A44001548704703F470114FF4701292FAA2F231
:100A5400B2FA82F221FA02F21049885C0D4AD26A93
:100A640002F00F020F2191FAA1F1B1FA81F1CA400B
:100A74000B498A5C13F4803F05D0074BB3FBF2F3B8
:100A840003FB00F07047044BB3FBF2F303FB00F0ED
:100A9400704700BF0010024000127A00D00F000817
:100AA400E00F0008002800F0BE8070B50D46044633
:100AB400614B1B6803F007038B420BD25E4A136839
:100AC40023F007030B431360136803F007038B42FF
:100AD40040F0AB80236813F0020F06D0574A5368E6
:100AE40023F0F003A1680B435360236813F0010F54
:100AF4005AD06368012B2DD0022B40D0022292FAE7
:100B0400A2F24E4A1068022292FAA2F2B2FA82F2D9
:100B140002F01F02012101FA02F2104200F0878064
:100B240046494A6822F0030213434B60FFF758FC1E
:100B34000646424B5B6803F00C036268B3EB820F1A
:100B440032D0FFF74DFC801B41F288339842F0D934
:100B5400032067E04FF4003292FAA2F2374A106899
:100B64004FF4003292FAA2F2B2FA82F202F01F02B9
:100B7400012101FA02F20242D2D1012052E04FF0E7
:100B8400007292FAA2F22D4A10684FF0007292FAA3
:100B9400A2F2B2FA82F202F01F02012101FA02F279
:100BA4001042BDD101203DE0234B1B6803F0070335
:100BB400AB420AD9204A136823F007032B4313607E
:100BC400136803F00703AB4233D1236813F0040F17
:100BD40006D01A4A536823F4E063E1680B43536078
:100BE400236813F0080F07D0144A536823F46053A2
:100BF400216943EAC1035360FFF71CFF0F4B5B6895
:100C040003F0F003F02292FAA2F2B2FA82F2D34095
:100C14000B4AD35CD8400B4B18600B4B1868FFF79A
:100C24009BFB002070BD012070470120FAE70120E2
:100C3400F8E70120F6E700BF002002400010024060
:100C4400F00F00080800002004000020F0B583B075
:100C5400002362E085685E000324B44025EA0405AD
:100C6400CC68B4402C438460446824EA0C0C4C687F
:100C7400C4F300149C4044EA0C0444605EE0DD08C4
:100C8400083550F8256003F007044FEA840C0F245C
:100C940004FA0CF426EA040E0C6904FA0CF444EA8F
:100CA4000E0440F8254060E0062400E0002404FA25
:100CB4000EF42C430CF1020C584D45F82C40584CC2
:100CC400A568D44325EA02064F6817F4801F01D0B3
:100CD40042EA0506524DAE60ED6804EA05064F6827
:100CE40017F4001F01D042EA05064D4DEE606D6811
:100CF40004EA05064F6817F4003F01D042EA0506EE
:100D0400474D6E602D682C404E6816F4803F01D02C
:100D140042EA0504424A146001330A6832FA03F4D1
:100D24007AD04FF0010C0CFA03FC1CEA0202F3D057
:100D34004C6804F00304013C012C8BD94C6804F08A
:100D44000304032C0CD0C4685D004FF0030C0CFAB0
:100D540005FC24EA0C0C8C68AC4044EA0C04C46026
:100D64004C6804F00304022C89D004684FEA430E53
:100D74004FF0030C0CFA0EFC24EA0C0C4C6804F043
:100D8400030404FA0EF444EA0C0404604C6814F4FA
:100D9400403FC1D0234CA56945F00105A561A46974
:100DA40004F001040194019C4FEA930C0CF1020538
:100DB4001A4C54F8255003F003044FEA840E0F2410
:100DC40004FA0EF425EA0405B0F1904F3FF46EAF37
:100DD400154CA04216D004F58064A04214D004F54A
:100DE4008064A04212D004F58064A04210D004F5BF
:100DF4008064A0420ED004F58064A0423FF454AF56
:100E0400072454E7012452E7022450E703244EE761
:100E140004244CE705244AE703B0F0BD0000014078
:100E24000004014000100240000400480AB181613E
:100E34007047816270470000074AD36823F4E06377
:100E44001B041B0C000200F4E060034343F0BF6387
:100E540043F40033D360704700ED00E000B5194B54
:100E6400DB68C3F30223C3F1070CBCF1040F28BFF2
:100E74004FF0040C03F1040EBEF1060F18D9033B26
:100E84004FF0FF3E0EFA0CFC21EA0C0199400EFAD9
:100E940003F322EA0303194300280BDB0901C9B257
:100EA40000F1604000F5614080F800135DF804FB38
:100EB4000023E5E700F00F000901C9B2024B195401
:100EC400F4E700BF00ED00E014ED00E00138B0F1FC
:100ED400807F0BD24FF0E0235861054AF02182F85D
:100EE40023100020986107221A617047012070477F
:100EF40000ED00E0034AD2F8883043F47003C2F8EE
:100F04008830704700ED00E0DFF834D0FFF7F2FFDF
:100F14000C480D490D4A002302E0D458C450043350
:100F2400C4188C42F9D30A4A0A4C002301E0136026
:100F34000432A242FBD300F011F8FFF7DAF9FEE71E
:100F440000000120000000200C0000200810000810
:100F54000C0000202C000020FEE7000070B50D4DB1
:100F64000D4C641BA4100026A64209D10B4D0C4C59
:100F740000F020F8641BA4100026A64205D170BD21
:100F840055F8043B98470136EEE755F8043B98477B
:100F94000136F2E7001000080010000800100008F5
:100FA4000410000802440346934200D1704703F83A
:100FB400011BF9E7F8B500BFF8BC08BC9E467047B2
:0C0FC400F8B500BFF8BC08BC9E467047A2
:100FD00002030405060708090A0B0C0D0E0F10107A
:100FE0000102030405060708090A0B0C0D0E0F1079
:100FF00000000000000000000102030406070809C9
:04100000B90100082A
:04100400950100084A
:0C100800010000001000000000127A003F
:0400000508000F0DD3
:00000001FF
