:020000040800F2
:100000000030002059110008D5020008D70200086E
:10001000D9020008DB020008DD0200080000000031
:10002000000000000000000000000000DF020008E7
:10003000E102000800000000E3020008E5020008F9
:10004000A9110008A9110008A9110008A9110008A8
:10005000A9110008A9110008A9110008A911000898
:10006000A9110008A9110008A9110008A911000888
:10007000A9110008A9110008A9110008A911000878
:10008000A9110008A9110008A9110008A911000868
:10009000A9110008A9110008A9110008A911000858
:1000A000A9110008A9110008A9110008A911000848
:1000B000A9110008A911000800000000A9110008FA
:1000C000A91100080000000000000000A9110008AC
:1000D00000000000A9110008A9110008A9110008DA
:1000E000A9110008A911000800000000000000008C
:1000F0000000000000000000000000000000000000
:1001000000000000000000000000000000000000EF
:100110000000000000000000A9110008A91100085B
:1001200000000000000000000000000000000000CF
:1001300000000000000000000000000000000000BF
:10014000A9110008A911000800000000000000002B
:10015000000000000000000000000000000000009F
:10016000000000000000000000000000000000008F
:10017000000000000000000000000000000000007F
:0801800000000000A9110008B5
:1001880010B5054C237833B9044B13B10448AFF3C9
:1001980000800123237010BD0C0000200000000027
:1001A8000412000808B5034B1BB103490348AFF319
:1001B800008008BD000000001000002004120008A4
:1001C80072B6FEE708B50948094B0360002343608F
:1001D8007F228260FF22C26003614361836100F075
:1001E80017F900B908BDFFF7EBFF00BF2800002092
:1001F8000028004000B585B00023019302930393C3
:100208000D480E4A0260436083604FF6FF72C26079
:10021800836100F027FF50B900230193039301A9DC
:10022800054800F04FFF20B905B05DF804FBFFF763
:10023800C7FFFFF7C5FF00BF4800002000100040BF
:1002480000B597B0282200210CA800F0CFFF0023AA
:100258000793089309930A930B93019302930393CB
:100268000493059306930A230C93012310931022F9
:10027800119212930CA800F063F9B8B90F230793F1
:100288000021089109910A910B9107A800F0AAFC96
:1002980070B94FF4803301934FF40073029301A8AF
:1002A80000F074FD30B917B05DF804FBFFF788FF64
:1002B800FFF786FFFFF784FF08B500F01DF9FFF789
:1002C800BFFFFFF77FFFFFF795FFFEE7FEE7FEE7BB
:1002D800FEE7FEE7FEE770477047704708B500F095
:1002E8001DF908BD82B00A4B9A6942F001029A6171
:1002F8009A6902F001020092009ADA6942F080528B
:10030800DA61DB6903F080530193019B02B0704707
:10031800001002400268084B9A4200D070474FF420
:10032800004292FAA2F2B2FA82F2044B13449B0002
:1003380001221A60F2E700BF0028004000819010F7
:100348000268094B9A4200D0704782B003F5003327
:10035800DA6942F01002DA61DB6903F010030193F5
:10036800019B02B0704700BF0010004038B504463A
:1003780003680A4ADA6000F0DDF805462368DB689E
:1003880013F0200F07D100F0D5F8401BB0F57A7FA5
:10039800F4D9032000E0002038BD00BF5F7F0100D2
:1003A80070B50368DA6812F0400F02D000252846BD
:1003B80070BD0446DA6842F08002DA6000F0BAF8EC
:1003C800064600252368DB6813F0400FEFD1002DA7
:1003D800EDD100F0AFF8831BB3F57A7FF2D904238F
:1003E80063770125EEE70268D36823F08003D360C2
:1003F80003689B6813F0200F01D00020704710B5E8
:100408000446FFF7B3FF10B104236377012010BD42
:10041800002849D010B50446437F53B102236377BF
:100428002368DA6812F0100F07D0002001236377E1
:1004380010BD0377FFF76EFFF0E7CA225A62236800
:1004480053225A622046FFF7ABFF80B148B92268B1
:10045800136C23F4802313642268136CA1690B4383
:1004680013642368FF225A620028E1D1DEE722687C
:10047800936823F4E00323F04003936021688A68BB
:100488006368206903436069034313438B602368EF
:10049800E2681A6122681369A16843EA014313619B
:1004A8002046FFF7A0FFD1E70120704710B50446AA
:1004B8000E4B18784FF47A73B3FBF0F30C4A1068BC
:1004C800B0FBF3F000F072FD68B90F2C01D90120E0
:1004D8000AE0002221464FF0FF3000F02FFD054BC7
:1004E8001C60002000E0012010BD00BF00000020BB
:1004F800080000200400002008B5074A136843F0EC
:1005080010031360032000F007FD0F20FFF7CEFF54
:10051800FFF7E8FE002008BD00200240034A1168EA
:10052800034B1B780B441360704700BF94000020F6
:1005380000000020014B1868704700BF940000209D
:10054800002800F0018370B582B00446036813F0F8
:10055800010F3BD0B54B5B6803F00C03042B1ED096
:10056800B24B5B6803F00C03082B13D06368B3F538
:10057800803F68D0002B40F0928003F1804303F560
:1005880004331A6822F480321A601A6822F480222E
:100598001A605DE0A54B5B6813F4803FE6D04FF42A
:1005A800003393FAA3F3A14B19684FF4003393FA7D
:1005B800A3F3B3FA83F303F01F03012202FA03F350
:1005C8000B4203D06368002B00F0C082236813F04D
:1005D800020F00F0C580954B5B6813F00C0F00F01C
:1005E8009C80924B5B6803F00C03082B00F08F8013
:1005F8002369002B00F0F280012292FAA2F3B3FAE9
:1006080083F303F1845303F584139B001A60FFF707
:1006180091FF0546022393FAA3F3844B196802233A
:1006280093FAA3F3B3FA83F303F01F03012202FA48
:1006380003F30B4240F0C380FFF77CFF401B022806
:10064800E8D903208BE2794A136843F480331360B6
:10065800764AD36A23F00F03A1680B43D362636819
:10066800002B36D0FFF766FF05464FF4003393FAA8
:10067800A3F36E4B19684FF4003393FAA3F3B3FA5C
:1006880083F303F01F03012202FA03F30B429DD107
:10069800FFF750FF401B6428E7D903205FE2B3F55A
:1006A800A02F09D0614B1A6822F480321A601A68A8
:1006B80022F480221A60CBE703F18043A3F53C3390
:1006C8001A6842F480221A601A6842F480321A606A
:1006D800BEE7FFF72FFF05464FF4003393FAA3F365
:1006E800524B19684FF4003393FAA3F3B3FA83F328
:1006F80003F01F03012202FA03F30B423FF466AF33
:10070800FFF718FF401B6428E6D9032027E2474B70
:100718005B6813F4803F7FF46BAF022393FAA3F373
:10072800424B1968022393FAA3F3B3FA83F303F055
:100738001F03012202FA03F30B4203D023699342F9
:1007480040F006823948036823F0F8036169F8220B
:1007580092FAA2F2B2FA82F201FA02F213430360A9
:10076800236813F0080F00F08D80A369002B61D077
:10077800012191FAA1F2B2FA82F22D4B13449B00A7
:100788001960FFF7D7FE0546022393FAA3F293FAFE
:10079800A3F293FAA3F2254A516A93FAA3F3B3FAA0
:1007A80083F303F01F03012202FA03F30B4269D11A
:1007B800FFF7C0FE401B0228E6D90320CFE11B4803
:1007C800036823F0F8036169F82292FAA2F2B2FAF8
:1007D80082F201FA02F213430360C1E7012393FA9C
:1007E800A3F3B3FA83F303F1845303F584139B0053
:1007F80000221A60FFF79EFE0546022393FAA3F330
:100808000A4B1968022393FAA3F3B3FA83F303F0AC
:100818001F03012202FA03F30B42A1D0FFF78AFE5D
:10082800401B0228E9D9032099E100BF00100240CB
:1008380020819010012292FAA2F2B2FA82F2B74B0A
:1008480013449B0000221A60FFF774FE054602233A
:1008580093FAA3F293FAA3F293FAA3F2B04A516A75
:1008680093FAA3F3B3FA83F303F01F03012202FA06
:1008780003F30B4206D0FFF75DFE401B0228E6D9C2
:1008880003206CE1236813F0040F00F0A980A44B47
:10089800DB6913F0805F20D1A14BDA6942F0805206
:1008A800DA61DB6903F080530193019B01259D4BBD
:1008B8001B6813F4807F12D0E368012B23D073BB2D
:1008C80003F1804303F504331A6A22F001021A6225
:1008D8001A6A22F004021A621AE00025E7E7914A30
:1008E800136843F480731360FFF724FE06468D4BAC
:1008F8001B6813F4807FDFD1FFF71CFE801B642880
:10090800F5D903202BE1864A136A43F001031362E9
:10091800E368002B3CD0FFF70DFE06462BE0052BC5
:1009280009D07F4B1A6A22F001021A621A6A22F071
:1009380004021A62ECE77A4B1A6A42F004021A625D
:100948001A6A42F001021A62E2E7754B196A022339
:1009580093FAA3F3B3FA83F303F01F03012202FA15
:1009680003F319423BD1FFF7E5FD801B41F28833C1
:10097800984200F2EF80022393FAA3F293FAA3F3CA
:10098800002BE2D1022393FAA3F3654B596ADEE701
:10099800FFF7D0FD064615E0614B196A022393FA6A
:1009A800A3F3B3FA83F303F01F03012202FA03F35C
:1009B800194214D0FFF7BEFD801B41F288339842DC
:1009C80000F2CA80022393FAA3F293FAA3F3002B4E
:1009D800E2D1022393FAA3F3514B596ADEE7B5BB80
:1009E800E369002B00F0BA804D4A526802F00C020D
:1009F800082A00F09980022B2FD04FF0807393FAC9
:100A0800A3F3B3FA83F303F1845303F584139B0030
:100A180000221A60FFF78EFD04464FF0007393FA28
:100A2800A3F33F4B19684FF0007393FAA3F3B3FA9B
:100A380083F303F01F03012202FA03F319426BD078
:100A4800FFF778FD001B0228E7D9032087E0344A26
:100A5800D36923F08053D361C2E74FF0807393FAD0
:100A6800A3F3B3FA83F303F1845303F584139B00D0
:100A780000221A60FFF75EFD05464FF0007393FAF7
:100A8800A3F3274B19684FF0007393FAA3F3B3FA53
:100A980083F303F01F03012202FA03F3194206D07D
:100AA800FFF748FD401B0228E7D9032057E01C49FF
:100AB8004B6823F47413626A206A024313434B6041
:100AC8004FF0807393FAA3F3B3FA83F303F18453DB
:100AD80003F584139B0001221A60FFF72BFD0446DF
:100AE8004FF0007393FAA3F30D4B19684FF000739E
:100AF80093FAA3F3B3FA83F303F01F03012202FA74
:100B080003F3194206D1FFF715FD001B0228E7D9A8
:100B1800032024E0002022E0002020E02081901023
:100B28000010024000700040012B1AD0104B5B6887
:100B380003F48031226A914215D103F47013626A7A
:100B4800934212D100200AE001207047012006E0FC
:100B5800012004E0032002E0032000E0002002B0AE
:100B680070BD0120FBE70120F9E70120F7E700BF8E
:100B780000100240164B5B6803F00C02082A01D0F3
:100B88001448704703F470114FF4701292FAA2F2ED
:100B9800B2FA82F221FA02F20F49885C0C4AD26A50
:100BA80002F00F020F2191FAA1F1B1FA81F1CA40C6
:100BB8000A498A5C13F4803F05D0064BB3FBF2F375
:100BC80003FB00F07047064B03FB00F0704700BFC3
:100BD8000010024000127A001C1200082C120008B3
:100BE80000093D00002800F0BE8070B50D4604469F
:100BF800614B1B6803F007038B420BD25E4A1368F4
:100C080023F007030B431360136803F007038B42B9
:100C180040F0AB80236813F0020F06D0574A5368A0
:100C280023F0F003A1680B435360236813F0010F0E
:100C38005AD06368012B2DD0022B40D0022292FAA1
:100C4800A2F24E4A1068022292FAA2F2B2FA82F294
:100C580002F01F02012101FA02F2104200F087801F
:100C680046494A6822F0030213434B60FFF762FCCF
:100C78000646424B5B6803F00C036268B3EB820FD5
:100C880032D0FFF757FC801B41F288339842F0D9E5
:100C9800032067E04FF4003292FAA2F2374A106854
:100CA8004FF4003292FAA2F2B2FA82F202F01F0274
:100CB800012101FA02F20242D2D1012052E04FF0A2
:100CC800007292FAA2F22D4A10684FF0007292FA5E
:100CD800A2F2B2FA82F202F01F02012101FA02F234
:100CE8001042BDD101203DE0234B1B6803F00703F0
:100CF800AB420AD9204A136823F007032B43136039
:100D0800136803F00703AB4233D1236813F0040FD1
:100D180006D01A4A536823F4E063E1680B43536032
:100D2800236813F0080F07D0144A536823F460535C
:100D3800216943EAC1035360FFF71CFF0F4B5B684F
:100D480003F0F003F02292FAA2F2B2FA82F2D34050
:100D58000B4AD35CD8400B4B18600B4B1868FFF755
:100D6800A5FB002070BD012070470120FAE7012093
:100D7800F8E70120F6E700BF00200240001002401B
:100D88003C1200080800002004000020F0B583B0E1
:100D98000446036813F4803F44D05C4BDB6913F0CE
:100DA800805F6DD1594BDA6942F08052DA61DB69B4
:100DB80003F080530193019B0125554B1B6813F4E5
:100DC800807F5FD0514B1B6A13F4407321D0626857
:100DD80002F440729A421CD04C48016A21F44076D1
:100DE8004FF4803393FAA3F2B2FA82F2494F3A44AD
:100DF80092004FF0010CC2F800C093FAA3F3B3FAC3
:100E080083F33B449B0000221A60066211F0010F35
:100E18004CD13E4A136A23F4407361680B43136252
:100E2800002D69D1236813F0010F06D0374A136BE0
:100E380023F00303A1680B431363236813F0200F07
:100E480006D0324A136B23F01003E1680B43136397
:100E5800236813F0800F06D02C4AD36A23F4F87362
:100E680021690B43D362236813F4805F4BD0274A70
:100E7800136B23F4807361690B431363002043E011
:100E880000259AE7224A136843F480731360FFF73A
:100E980051FB06461E4B1B6813F4807F92D1FFF767
:100EA80049FB801B6428F5D903202DE0FFF742FB9E
:100EB800064614E0154B196A022393FAA3F3B3FA12
:100EC80083F303F01F03012202FA03F30B42A0D1BC
:100ED800FFF730FB801B41F28833984211D8022378
:100EE80093FAA3F293FAA3F3002BE3D1022393FA24
:100EF800A3F3064B596ADFE7D36923F08053D36124
:100F080090E7032000E0002003B0F0BD001002408D
:100F18000070004000819010074AD36823F4E06312
:100F28001B041B0C000200F4E060034343F0BF63A2
:100F380043F40033D360704700ED00E000B5194B6F
:100F4800DB68C3F30223C3F1070CBCF1040F28BF0D
:100F58004FF0040C03F1040EBEF1060F18D9033B41
:100F68004FF0FF3E0EFA0CFC21EA0C0199400EFAF4
:100F780003F322EA0303194300280BDB0901C9B272
:100F880000F1604000F5614080F800135DF804FB53
:100F98000023E5E700F00F000901C9B2024B19541C
:100FA800F4E700BF00ED00E014ED00E00138B0F117
:100FB800807F0BD24FF0E0235861054AF02182F878
:100FC80023100020986107221A617047012070479A
:100FD80000ED00E00368224A904206D0B0F1804F4D
:100FE80003D0A2F59432904203D123F070034A68EB
:100FF80013431B4A904212D0B0F1804F0FD0A2F594
:10100800943290420BD002F59E32904207D002F5FE
:101018008062904203D002F58062904203D123F4AB
:101028004073CA68134323F080034A69134303607B
:101038008B68C3620B688362094B98420BD003F537
:10104800A053984207D003F58063984203D003F574
:101058008063984201D10B690363012343617047A0
:10106800002C014060B310B5044690F83D3013B32E
:10107800022384F83D30214651F8040BFFF7AAFFFC
:10108800012384F8483084F83E3084F83F3084F8EF
:10109800403084F8413084F8423084F8433084F892
:1010A800443084F8453084F8463084F8473084F872
:1010B8003D30002010BD80F83C30FFF741F9D7E7FC
:1010C8000120704790F83C30012B33D030B4012315
:1010D80080F83C30022380F83D30026853689468F9
:1010E800154DAA4221D023F070030D682B4353609D
:1010F8000368114A93420AD0B3F1804F07D0A2F592
:101108009432934203D002F59E32934204D124F0E4
:1011180080048A6814439C60012380F83D300023D2
:1011280080F83C30184630BC704723F470034D6893
:101138002B43D8E702207047002C0140034AD2F81D
:10114800883043F47003C2F88830704700ED00E03F
:10115800DFF834D0FFF7F2FF0C480D490D4A0023A1
:1011680002E0D458C4500433C4188C42F9D30A4A54
:101178000A4C002301E013600432A242FBD300F0C2
:1011880011F8FFF799F8FEE7003000200000002072
:101198000C000020541200080C00002098000020C9
:1011A800FEE7000070B50D4D0D4C641BA410002621
:1011B800A64209D10B4D0C4C00F020F8641BA4107A
:1011C8000026A64205D170BD55F8043B9847013664
:1011D800EEE755F8043B98470136F2E74C12000851
:1011E8004C1200084C120008501200080244034632
:1011F800934200D1704703F8011BF9E7F8B500BF27
:10120800F8BC08BC9E467047F8B500BFF8BC08BCDF
:041218009E46704737
:10121C0002030405060708090A0B0C0D0E0F10102B
:10122C000102030405060708090A0B0C0D0E0F102A
:10123C00000000000000000001020304060708097A
:04124C00AD010008E8
:041250008901000808
:0C125400010000001000000000127A00F1
:040000050800115985
:00000001FF
